{
  "contractName": "FundraiserFactory",
  "abi": [
    {
      "anonymous": false,
      "inputs": [
        {
          "indexed": true,
          "internalType": "contract Fundraiser",
          "name": "fundraiser",
          "type": "address"
        },
        {
          "indexed": true,
          "internalType": "address",
          "name": "owner",
          "type": "address"
        }
      ],
      "name": "FundraiserCreated",
      "type": "event"
    },
    {
      "inputs": [
        {
          "internalType": "string",
          "name": "name",
          "type": "string"
        },
        {
          "internalType": "string",
          "name": "url",
          "type": "string"
        },
        {
          "internalType": "string",
          "name": "imageURL",
          "type": "string"
        },
        {
          "internalType": "string",
          "name": "description",
          "type": "string"
        },
        {
          "internalType": "address payable",
          "name": "beneficiary",
          "type": "address"
        }
      ],
      "name": "createFundraiser",
      "outputs": [],
      "stateMutability": "nonpayable",
      "type": "function"
    },
    {
      "inputs": [],
      "name": "fundraisersCount",
      "outputs": [
        {
          "internalType": "uint256",
          "name": "",
          "type": "uint256"
        }
      ],
      "stateMutability": "view",
      "type": "function",
      "constant": true
    },
    {
      "inputs": [
        {
          "internalType": "uint256",
          "name": "limit",
          "type": "uint256"
        },
        {
          "internalType": "uint256",
          "name": "offset",
          "type": "uint256"
        }
      ],
      "name": "fundraisers",
      "outputs": [
        {
          "internalType": "contract Fundraiser[]",
          "name": "coll",
          "type": "address[]"
        }
      ],
      "stateMutability": "view",
      "type": "function",
      "constant": true
    }
  ],
  "bytecode": "0x608060405234801561001057600080fd5b50612756806100206000396000f3fe60806040523480156200001157600080fd5b5060043610620000465760003560e01c806311d752ad146200004b578063704914f8146200006b5780639d3b435514620000a1575b600080fd5b62000069600480360381019062000063919062000441565b620000c3565b005b62000089600480360381019062000083919062000545565b620001cf565b604051620000989190620006bc565b60405180910390f35b620000ab6200037b565b604051620000ba91906200078b565b60405180910390f35b6000858585858533604051620000d99062000387565b620000ea96959493929190620006e0565b604051809103906000f08015801562000107573d6000803e3d6000fd5b5090506000819080600181540180825580915050600190039060005260206000200160009091909190916101000a81548173ffffffffffffffffffffffffffffffffffffffff021916908373ffffffffffffffffffffffffffffffffffffffff1602179055503373ffffffffffffffffffffffffffffffffffffffff168173ffffffffffffffffffffffffffffffffffffffff167fa2398daac0c8053a1e3c0280916c2ec6bc884f0959c27e639a4db829b7eabfb160405160405180910390a3505050505050565b6060620001db6200037b565b82111562000220576040517f08c379a0000000000000000000000000000000000000000000000000000000008152600401620002179062000769565b60405180910390fd5b6000826200022d6200037b565b620002399190620008b9565b90508381106200024a57836200024c565b805b9050601481106200025f57601462000261565b805b90508067ffffffffffffffff81111562000280576200027f62000aa9565b5b604051908082528060200260200182016040528015620002af5781602001602082028036833780820191505090505b50915060005b81811015620003735760008185620002ce91906200085c565b81548110620002e257620002e162000a7a565b5b9060005260206000200160009054906101000a900473ffffffffffffffffffffffffffffffffffffffff1683828151811062000323576200032262000a7a565b5b602002602001019073ffffffffffffffffffffffffffffffffffffffff16908173ffffffffffffffffffffffffffffffffffffffff168152505080806200036a90620009fd565b915050620002b5565b505092915050565b60008080549050905090565b611bc68062000b5b83390190565b6000620003ac620003a684620007d1565b620007a8565b905082815260208101848484011115620003cb57620003ca62000add565b5b620003d884828562000982565b509392505050565b600081359050620003f18162000b26565b92915050565b600082601f8301126200040f576200040e62000ad8565b5b81356200042184826020860162000395565b91505092915050565b6000813590506200043b8162000b40565b92915050565b600080600080600060a0868803121562000460576200045f62000ae7565b5b600086013567ffffffffffffffff81111562000481576200048062000ae2565b5b6200048f88828901620003f7565b955050602086013567ffffffffffffffff811115620004b357620004b262000ae2565b5b620004c188828901620003f7565b945050604086013567ffffffffffffffff811115620004e557620004e462000ae2565b5b620004f388828901620003f7565b935050606086013567ffffffffffffffff81111562000517576200051662000ae2565b5b6200052588828901620003f7565b92505060806200053888828901620003e0565b9150509295509295909350565b600080604083850312156200055f576200055e62000ae7565b5b60006200056f858286016200042a565b925050602062000582858286016200042a565b9150509250929050565b60006200059a838362000632565b60208301905092915050565b620005b18162000908565b82525050565b620005c281620008f4565b82525050565b6000620005d58262000817565b620005e181856200083a565b9350620005ee8362000807565b8060005b83811015620006255781516200060988826200058c565b975062000616836200082d565b925050600181019050620005f2565b5085935050505092915050565b6200063d8162000946565b82525050565b6000620006508262000822565b6200065c81856200084b565b93506200066e81856020860162000991565b620006798162000aec565b840191505092915050565b6000620006936014836200084b565b9150620006a08262000afd565b602082019050919050565b620006b6816200093c565b82525050565b60006020820190508181036000830152620006d88184620005c8565b905092915050565b600060c0820190508181036000830152620006fc818962000643565b9050818103602083015262000712818862000643565b9050818103604083015262000728818762000643565b905081810360608301526200073e818662000643565b90506200074f6080830185620005a6565b6200075e60a0830184620005b7565b979650505050505050565b60006020820190508181036000830152620007848162000684565b9050919050565b6000602082019050620007a26000830184620006ab565b92915050565b6000620007b4620007c7565b9050620007c28282620009c7565b919050565b6000604051905090565b600067ffffffffffffffff821115620007ef57620007ee62000aa9565b5b620007fa8262000aec565b9050602081019050919050565b6000819050602082019050919050565b600081519050919050565b600081519050919050565b6000602082019050919050565b600082825260208201905092915050565b600082825260208201905092915050565b600062000869826200093c565b915062000876836200093c565b9250827fffffffffffffffffffffffffffffffffffffffffffffffffffffffffffffffff03821115620008ae57620008ad62000a4b565b5b828201905092915050565b6000620008c6826200093c565b9150620008d3836200093c565b925082821015620008e957620008e862000a4b565b5b828203905092915050565b600062000901826200091c565b9050919050565b600062000915826200091c565b9050919050565b600073ffffffffffffffffffffffffffffffffffffffff82169050919050565b6000819050919050565b600062000953826200095a565b9050919050565b600062000967826200096e565b9050919050565b60006200097b826200091c565b9050919050565b82818337600083830152505050565b60005b83811015620009b157808201518184015260208101905062000994565b83811115620009c1576000848401525b50505050565b620009d28262000aec565b810181811067ffffffffffffffff82111715620009f457620009f362000aa9565b5b80604052505050565b600062000a0a826200093c565b91507fffffffffffffffffffffffffffffffffffffffffffffffffffffffffffffffff82141562000a405762000a3f62000a4b565b5b600182019050919050565b7f4e487b7100000000000000000000000000000000000000000000000000000000600052601160045260246000fd5b7f4e487b7100000000000000000000000000000000000000000000000000000000600052603260045260246000fd5b7f4e487b7100000000000000000000000000000000000000000000000000000000600052604160045260246000fd5b600080fd5b600080fd5b600080fd5b600080fd5b6000601f19601f8301169050919050565b7f6f6666736574206f7574206f6620626f756e6473000000000000000000000000600082015250565b62000b318162000908565b811462000b3d57600080fd5b50565b62000b4b816200093c565b811462000b5757600080fd5b5056fe60806040523480156200001157600080fd5b5060405162001bc638038062001bc6833981810160405281019062000037919062000480565b620000576200004b6200011960201b60201c565b6200012160201b60201c565b85600290805190602001906200006f92919062000324565b5084600390805190602001906200008892919062000324565b508360049080519060200190620000a192919062000324565b508260059080519060200190620000ba92919062000324565b5081600660006101000a81548173ffffffffffffffffffffffffffffffffffffffff021916908373ffffffffffffffffffffffffffffffffffffffff1602179055506200010d81620001e560201b60201c565b505050505050620008b3565b600033905090565b60008060009054906101000a900473ffffffffffffffffffffffffffffffffffffffff169050816000806101000a81548173ffffffffffffffffffffffffffffffffffffffff021916908373ffffffffffffffffffffffffffffffffffffffff1602179055508173ffffffffffffffffffffffffffffffffffffffff168173ffffffffffffffffffffffffffffffffffffffff167f8be0079c531659141344cd1fd0a4f28419497f9722a3daafe3b4186f6b6457e060405160405180910390a35050565b620001f56200011960201b60201c565b73ffffffffffffffffffffffffffffffffffffffff166200021b620002fb60201b60201c565b73ffffffffffffffffffffffffffffffffffffffff161462000274576040517f08c379a00000000000000000000000000000000000000000000000000000000081526004016200026b9062000608565b60405180910390fd5b600073ffffffffffffffffffffffffffffffffffffffff168173ffffffffffffffffffffffffffffffffffffffff161415620002e7576040517f08c379a0000000000000000000000000000000000000000000000000000000008152600401620002de90620005e6565b60405180910390fd5b620002f8816200012160201b60201c565b50565b60008060009054906101000a900473ffffffffffffffffffffffffffffffffffffffff16905090565b828054620003329062000718565b90600052602060002090601f016020900481019282620003565760008555620003a2565b82601f106200037157805160ff1916838001178555620003a2565b82800160010185558215620003a2579182015b82811115620003a157825182559160200191906001019062000384565b5b509050620003b19190620003b5565b5090565b5b80821115620003d0576000816000905550600101620003b6565b5090565b6000620003eb620003e58462000653565b6200062a565b9050828152602081018484840111156200040a5762000409620007e7565b5b62000417848285620006e2565b509392505050565b60008151905062000430816200087f565b92915050565b600081519050620004478162000899565b92915050565b600082601f830112620004655762000464620007e2565b5b815162000477848260208601620003d4565b91505092915050565b60008060008060008060c08789031215620004a0576200049f620007f1565b5b600087015167ffffffffffffffff811115620004c157620004c0620007ec565b5b620004cf89828a016200044d565b965050602087015167ffffffffffffffff811115620004f357620004f2620007ec565b5b6200050189828a016200044d565b955050604087015167ffffffffffffffff811115620005255762000524620007ec565b5b6200053389828a016200044d565b945050606087015167ffffffffffffffff811115620005575762000556620007ec565b5b6200056589828a016200044d565b93505060806200057889828a0162000436565b92505060a06200058b89828a016200041f565b9150509295509295509295565b6000620005a760268362000689565b9150620005b48262000807565b604082019050919050565b6000620005ce60208362000689565b9150620005db8262000856565b602082019050919050565b60006020820190508181036000830152620006018162000598565b9050919050565b600060208201905081810360008301526200062381620005bf565b9050919050565b60006200063662000649565b90506200064482826200074e565b919050565b6000604051905090565b600067ffffffffffffffff821115620006715762000670620007b3565b5b6200067c82620007f6565b9050602081019050919050565b600082825260208201905092915050565b6000620006a782620006c2565b9050919050565b6000620006bb82620006c2565b9050919050565b600073ffffffffffffffffffffffffffffffffffffffff82169050919050565b60005b8381101562000702578082015181840152602081019050620006e5565b8381111562000712576000848401525b50505050565b600060028204905060018216806200073157607f821691505b6020821081141562000748576200074762000784565b5b50919050565b6200075982620007f6565b810181811067ffffffffffffffff821117156200077b576200077a620007b3565b5b80604052505050565b7f4e487b7100000000000000000000000000000000000000000000000000000000600052602260045260246000fd5b7f4e487b7100000000000000000000000000000000000000000000000000000000600052604160045260246000fd5b600080fd5b600080fd5b600080fd5b600080fd5b6000601f19601f8301169050919050565b7f4f776e61626c653a206e6577206f776e657220697320746865207a65726f206160008201527f6464726573730000000000000000000000000000000000000000000000000000602082015250565b7f4f776e61626c653a2063616c6c6572206973206e6f7420746865206f776e6572600082015250565b6200088a816200069a565b81146200089657600080fd5b50565b620008a481620006ae565b8114620008b057600080fd5b50565b61130380620008c36000396000f3fe6080604052600436106100ec5760003560e01c80635600f04f1161008a578063b90497e011610059578063b90497e0146102d2578063de2ed893146102fd578063ed88c68e14610328578063f2fde38b14610332576100ed565b80635600f04f1461023a578063715018a6146102655780637284e4161461027c5780638da5cb5b146102a7576100ed565b80631c31f710116100c65780631c31f710146101a45780631f522595146101cd57806338af3eed146101f85780633ccfd60b14610223576100ed565b80630180b97c1461012257806306fdde031461014d5780631a57f7b414610178576100ed565b5b6101023460075461035b90919063ffffffff16565b6007819055506008600081548092919061011b9061110c565b9190505550005b34801561012e57600080fd5b50610137610371565b6040516101449190610f93565b60405180910390f35b34801561015957600080fd5b506101626103bb565b60405161016f9190610f31565b60405180910390f35b34801561018457600080fd5b5061018d610449565b60405161019b929190610efa565b60405180910390f35b3480156101b057600080fd5b506101cb60048036038101906101c69190610d66565b6105be565b005b3480156101d957600080fd5b506101e261067e565b6040516101ef9190610f93565b60405180910390f35b34801561020457600080fd5b5061020d610684565b60405161021a9190610edf565b60405180910390f35b34801561022f57600080fd5b506102386106aa565b005b34801561024657600080fd5b5061024f6107ce565b60405161025c9190610f31565b60405180910390f35b34801561027157600080fd5b5061027a61085c565b005b34801561028857600080fd5b506102916108e4565b60405161029e9190610f31565b60405180910390f35b3480156102b357600080fd5b506102bc610972565b6040516102c99190610ec4565b60405180910390f35b3480156102de57600080fd5b506102e761099b565b6040516102f49190610f31565b60405180910390f35b34801561030957600080fd5b50610312610a29565b60405161031f9190610f93565b60405180910390f35b610330610a2f565b005b34801561033e57600080fd5b5061035960048036038101906103549190610d39565b610b4b565b005b600081836103699190611003565b905092915050565b6000600160003373ffffffffffffffffffffffffffffffffffffffff1673ffffffffffffffffffffffffffffffffffffffff16815260200190815260200160002080549050905090565b600280546103c8906110da565b80601f01602080910402602001604051908101604052809291908181526020018280546103f4906110da565b80156104415780601f1061041657610100808354040283529160200191610441565b820191906000526020600020905b81548152906001019060200180831161042457829003601f168201915b505050505081565b6060806000610456610371565b90508067ffffffffffffffff811115610472576104716111e2565b5b6040519080825280602002602001820160405280156104a05781602001602082028036833780820191505090505b5092508067ffffffffffffffff8111156104bd576104bc6111e2565b5b6040519080825280602002602001820160405280156104eb5781602001602082028036833780820191505090505b50915060005b818110156105b8576000600160003373ffffffffffffffffffffffffffffffffffffffff1673ffffffffffffffffffffffffffffffffffffffff168152602001908152602001600020828154811061054c5761054b6111b3565b5b906000526020600020906002020190508060000154858381518110610574576105736111b3565b5b6020026020010181815250508060010154848381518110610598576105976111b3565b5b6020026020010181815250505080806105b09061110c565b9150506104f1565b50509091565b6105c6610c43565b73ffffffffffffffffffffffffffffffffffffffff166105e4610972565b73ffffffffffffffffffffffffffffffffffffffff161461063a576040517f08c379a000000000000000000000000000000000000000000000000000000000815260040161063190610f73565b60405180910390fd5b80600660006101000a81548173ffffffffffffffffffffffffffffffffffffffff021916908373ffffffffffffffffffffffffffffffffffffffff16021790555050565b60085481565b600660009054906101000a900473ffffffffffffffffffffffffffffffffffffffff1681565b6106b2610c43565b73ffffffffffffffffffffffffffffffffffffffff166106d0610972565b73ffffffffffffffffffffffffffffffffffffffff1614610726576040517f08c379a000000000000000000000000000000000000000000000000000000000815260040161071d90610f73565b60405180910390fd5b6000479050600660009054906101000a900473ffffffffffffffffffffffffffffffffffffffff1673ffffffffffffffffffffffffffffffffffffffff166108fc829081150290604051600060405180830381858888f19350505050158015610793573d6000803e3d6000fd5b507f5b6b431d4476a211bb7d41c20d1aab9ae2321deee0d20be3d9fc9b1093fa6e3d816040516107c39190610f93565b60405180910390a150565b600380546107db906110da565b80601f0160208091040260200160405190810160405280929190818152602001828054610807906110da565b80156108545780601f1061082957610100808354040283529160200191610854565b820191906000526020600020905b81548152906001019060200180831161083757829003601f168201915b505050505081565b610864610c43565b73ffffffffffffffffffffffffffffffffffffffff16610882610972565b73ffffffffffffffffffffffffffffffffffffffff16146108d8576040517f08c379a00000000000000000000000000000000000000000000000000000000081526004016108cf90610f73565b60405180910390fd5b6108e26000610c4b565b565b600580546108f1906110da565b80601f016020809104026020016040519081016040528092919081815260200182805461091d906110da565b801561096a5780601f1061093f5761010080835404028352916020019161096a565b820191906000526020600020905b81548152906001019060200180831161094d57829003601f168201915b505050505081565b60008060009054906101000a900473ffffffffffffffffffffffffffffffffffffffff16905090565b600480546109a8906110da565b80601f01602080910402602001604051908101604052809291908181526020018280546109d4906110da565b8015610a215780601f106109f657610100808354040283529160200191610a21565b820191906000526020600020905b815481529060010190602001808311610a0457829003601f168201915b505050505081565b60075481565b60006040518060400160405280348152602001428152509050600160003373ffffffffffffffffffffffffffffffffffffffff1673ffffffffffffffffffffffffffffffffffffffff16815260200190815260200160002081908060018154018082558091505060019003906000526020600020906002020160009091909190915060008201518160000155602082015181600101555050610adc3460075461035b90919063ffffffff16565b60078190555060086000815480929190610af59061110c565b91905055503373ffffffffffffffffffffffffffffffffffffffff167f264f630d9efa0d07053a31163641d9fcc0adafc9d9e76f1c37c2ce3a558d2c5234604051610b409190610f93565b60405180910390a250565b610b53610c43565b73ffffffffffffffffffffffffffffffffffffffff16610b71610972565b73ffffffffffffffffffffffffffffffffffffffff1614610bc7576040517f08c379a0000000000000000000000000000000000000000000000000000000008152600401610bbe90610f73565b60405180910390fd5b600073ffffffffffffffffffffffffffffffffffffffff168173ffffffffffffffffffffffffffffffffffffffff161415610c37576040517f08c379a0000000000000000000000000000000000000000000000000000000008152600401610c2e90610f53565b60405180910390fd5b610c4081610c4b565b50565b600033905090565b60008060009054906101000a900473ffffffffffffffffffffffffffffffffffffffff169050816000806101000a81548173ffffffffffffffffffffffffffffffffffffffff021916908373ffffffffffffffffffffffffffffffffffffffff1602179055508173ffffffffffffffffffffffffffffffffffffffff168173ffffffffffffffffffffffffffffffffffffffff167f8be0079c531659141344cd1fd0a4f28419497f9722a3daafe3b4186f6b6457e060405160405180910390a35050565b600081359050610d1e8161129f565b92915050565b600081359050610d33816112b6565b92915050565b600060208284031215610d4f57610d4e611211565b5b6000610d5d84828501610d0f565b91505092915050565b600060208284031215610d7c57610d7b611211565b5b6000610d8a84828501610d24565b91505092915050565b6000610d9f8383610ea6565b60208301905092915050565b610db48161106b565b82525050565b610dc381611059565b82525050565b6000610dd482610fbe565b610dde8185610fe1565b9350610de983610fae565b8060005b83811015610e1a578151610e018882610d93565b9750610e0c83610fd4565b925050600181019050610ded565b5085935050505092915050565b6000610e3282610fc9565b610e3c8185610ff2565b9350610e4c8185602086016110a7565b610e5581611216565b840191505092915050565b6000610e6d602683610ff2565b9150610e7882611227565b604082019050919050565b6000610e90602083610ff2565b9150610e9b82611276565b602082019050919050565b610eaf8161109d565b82525050565b610ebe8161109d565b82525050565b6000602082019050610ed96000830184610dba565b92915050565b6000602082019050610ef46000830184610dab565b92915050565b60006040820190508181036000830152610f148185610dc9565b90508181036020830152610f288184610dc9565b90509392505050565b60006020820190508181036000830152610f4b8184610e27565b905092915050565b60006020820190508181036000830152610f6c81610e60565b9050919050565b60006020820190508181036000830152610f8c81610e83565b9050919050565b6000602082019050610fa86000830184610eb5565b92915050565b6000819050602082019050919050565b600081519050919050565b600081519050919050565b6000602082019050919050565b600082825260208201905092915050565b600082825260208201905092915050565b600061100e8261109d565b91506110198361109d565b9250827fffffffffffffffffffffffffffffffffffffffffffffffffffffffffffffffff0382111561104e5761104d611155565b5b828201905092915050565b60006110648261107d565b9050919050565b60006110768261107d565b9050919050565b600073ffffffffffffffffffffffffffffffffffffffff82169050919050565b6000819050919050565b60005b838110156110c55780820151818401526020810190506110aa565b838111156110d4576000848401525b50505050565b600060028204905060018216806110f257607f821691505b6020821081141561110657611105611184565b5b50919050565b60006111178261109d565b91507fffffffffffffffffffffffffffffffffffffffffffffffffffffffffffffffff82141561114a57611149611155565b5b600182019050919050565b7f4e487b7100000000000000000000000000000000000000000000000000000000600052601160045260246000fd5b7f4e487b7100000000000000000000000000000000000000000000000000000000600052602260045260246000fd5b7f4e487b7100000000000000000000000000000000000000000000000000000000600052603260045260246000fd5b7f4e487b7100000000000000000000000000000000000000000000000000000000600052604160045260246000fd5b600080fd5b6000601f19601f8301169050919050565b7f4f776e61626c653a206e6577206f776e657220697320746865207a65726f206160008201527f6464726573730000000000000000000000000000000000000000000000000000602082015250565b7f4f776e61626c653a2063616c6c6572206973206e6f7420746865206f776e6572600082015250565b6112a881611059565b81146112b357600080fd5b50565b6112bf8161106b565b81146112ca57600080fd5b5056fea2646970667358221220207c293f7e7b186179bd40b8860486ce08a562448f4c918dbd4ccec8786e543564736f6c63430008070033a2646970667358221220992cb554cff68e47f3b3528bbaa10b9b28e10a518913245367f74367b851808364736f6c63430008070033",
  "immutableReferences": {},
  "source": "pragma solidity ^0.8.0;\n\nimport \"./Fundraiser.sol\";\n\ncontract FundraiserFactory {\n   uint256 constant maxLimit = 20;\n   Fundraiser[] private _fundraisers;\n\n   event FundraiserCreated(Fundraiser indexed fundraiser, address indexed owner);\n\n    function createFundraiser(\n        string memory name,\n        string memory url,\n        string memory imageURL,\n        string memory description,\n        address payable beneficiary\n    )\n        public\n    {\n        Fundraiser fundraiser = new Fundraiser(\n            name,\n            url,\n            imageURL,\n            description,\n            beneficiary,\n            msg.sender\n        );\n        _fundraisers.push(fundraiser);\n        emit FundraiserCreated(fundraiser, msg.sender);\n    }\n\n    function fundraisersCount() public view returns(uint256) {\n        return _fundraisers.length;\n    }\n\n    function fundraisers(uint256 limit, uint256 offset)\n        public\n        view\n        returns(Fundraiser[] memory coll)\n    {\n        require(offset <= fundraisersCount(), \"offset out of bounds\");\n\n        uint256 size = fundraisersCount() - offset;\n        size = size < limit ? size : limit;\n        size = size < maxLimit ? size : maxLimit;\n        coll = new Fundraiser[](size);\n\n        for(uint256 i = 0; i < size; i++) {\n            coll[i] = _fundraisers[offset + i];\n        }\n\n        return coll;\n    }\n}\n",
  "sourcePath": "/Users/lilpacy/workspace/tmp/fundraiser/chapter-10+11/contracts/FundraiserFactory.sol",
  "compiler": {
    "name": "solc",
    "version": "0.8.7+commit.e28d00a7.Emscripten.clang"
  },
  "schemaVersion": "3.4.2",
  "updatedAt": "2021-09-25T17:22:27.637Z",
  "networkType": "ethereum",
  "devdoc": {
    "kind": "dev",
    "methods": {},
    "version": 1
  },
  "userdoc": {
    "kind": "user",
    "methods": {},
    "version": 1
  }
}